{
  "contractName": "postchain",
  "abi": [
    {
      "anonymous": false,
      "inputs": [
        {
          "indexed": true,
          "internalType": "address",
          "name": "previousOwner",
          "type": "address"
        },
        {
          "indexed": true,
          "internalType": "address",
          "name": "newOwner",
          "type": "address"
        }
      ],
      "name": "OwnershipTransferred",
      "type": "event"
    },
    {
      "anonymous": false,
      "inputs": [
        {
          "indexed": false,
          "internalType": "uint256",
          "name": "_id",
          "type": "uint256"
        },
        {
          "indexed": false,
          "internalType": "string",
          "name": "_hash",
          "type": "string"
        }
      ],
      "name": "StepProofCreated",
      "type": "event"
    },
    {
      "anonymous": false,
      "inputs": [
        {
          "indexed": false,
          "internalType": "uint256",
          "name": "_id",
          "type": "uint256"
        },
        {
          "indexed": false,
          "internalType": "string",
          "name": "_hash",
          "type": "string"
        }
      ],
      "name": "StepProofRemoved",
      "type": "event"
    },
    {
      "constant": true,
      "inputs": [
        {
          "internalType": "string",
          "name": "",
          "type": "string"
        }
      ],
      "name": "hashToId",
      "outputs": [
        {
          "internalType": "uint256",
          "name": "",
          "type": "uint256"
        }
      ],
      "payable": false,
      "stateMutability": "view",
      "type": "function"
    },
    {
      "constant": true,
      "inputs": [],
      "name": "isOwner",
      "outputs": [
        {
          "internalType": "bool",
          "name": "",
          "type": "bool"
        }
      ],
      "payable": false,
      "stateMutability": "view",
      "type": "function"
    },
    {
      "constant": true,
      "inputs": [],
      "name": "owner",
      "outputs": [
        {
          "internalType": "address",
          "name": "",
          "type": "address"
        }
      ],
      "payable": false,
      "stateMutability": "view",
      "type": "function"
    },
    {
      "constant": false,
      "inputs": [],
      "name": "renounceOwnership",
      "outputs": [],
      "payable": false,
      "stateMutability": "nonpayable",
      "type": "function"
    },
    {
      "constant": true,
      "inputs": [
        {
          "internalType": "uint256",
          "name": "",
          "type": "uint256"
        }
      ],
      "name": "stepIdToStepInfo",
      "outputs": [
        {
          "internalType": "uint256",
          "name": "createdAt",
          "type": "uint256"
        },
        {
          "internalType": "string",
          "name": "hashOfJson",
          "type": "string"
        }
      ],
      "payable": false,
      "stateMutability": "view",
      "type": "function"
    },
    {
      "constant": true,
      "inputs": [],
      "name": "stepsCounter",
      "outputs": [
        {
          "internalType": "uint256",
          "name": "",
          "type": "uint256"
        }
      ],
      "payable": false,
      "stateMutability": "view",
      "type": "function"
    },
    {
      "constant": false,
      "inputs": [
        {
          "internalType": "address",
          "name": "newOwner",
          "type": "address"
        }
      ],
      "name": "transferOwnership",
      "outputs": [],
      "payable": false,
      "stateMutability": "nonpayable",
      "type": "function"
    },
    {
      "constant": false,
      "inputs": [
        {
          "internalType": "string",
          "name": "_hashOfJson",
          "type": "string"
        }
      ],
      "name": "createStepProof",
      "outputs": [
        {
          "internalType": "uint256",
          "name": "stepID",
          "type": "uint256"
        }
      ],
      "payable": false,
      "stateMutability": "nonpayable",
      "type": "function"
    },
    {
      "constant": false,
      "inputs": [
        {
          "internalType": "string",
          "name": "_hashOfJson",
          "type": "string"
        }
      ],
      "name": "removeStepProof",
      "outputs": [
        {
          "internalType": "uint256",
          "name": "stepID",
          "type": "uint256"
        }
      ],
      "payable": false,
      "stateMutability": "nonpayable",
      "type": "function"
    }
  ],
  "bytecode": "0x6080604052600060015560006100196100bc60201b60201c565b9050806000806101000a81548173ffffffffffffffffffffffffffffffffffffffff021916908373ffffffffffffffffffffffffffffffffffffffff1602179055508073ffffffffffffffffffffffffffffffffffffffff16600073ffffffffffffffffffffffffffffffffffffffff167f8be0079c531659141344cd1fd0a4f28419497f9722a3daafe3b4186f6b6457e060405160405180910390a3506100c4565b600033905090565b611028806100d36000396000f3fe608060405234801561001057600080fd5b50600436106100935760003560e01c80638da5cb5b116100665780638da5cb5b146102ac5780638f32d59b146102f6578063aea4309214610318578063c83adf82146103a5578063f2fde38b146103c357610093565b806301ca159214610098578063121b618e1461014657806351a1fdff14610215578063715018a6146102a2575b600080fd5b6100c4600480360360208110156100ae57600080fd5b8101908080359060200190929190505050610407565b6040518083815260200180602001828103825283818151815260200191508051906020019080838360005b8381101561010a5780820151818401526020810190506100ef565b50505050905090810190601f1680156101375780820380516001836020036101000a031916815260200191505b50935050505060405180910390f35b6101ff6004803603602081101561015c57600080fd5b810190808035906020019064010000000081111561017957600080fd5b82018360208201111561018b57600080fd5b803590602001918460018302840111640100000000831117156101ad57600080fd5b91908080601f016020809104026020016040519081016040528093929190818152602001838380828437600081840152601f19601f8201169050808301925050505050505091929192905050506104c3565b6040518082815260200191505060405180910390f35b61028c6004803603602081101561022b57600080fd5b810190808035906020019064010000000081111561024857600080fd5b82018360208201111561025a57600080fd5b8035906020019184600183028401116401000000008311171561027c57600080fd5b90919293919293905050506104f1565b6040518082815260200191505060405180910390f35b6102aa6107e8565b005b6102b4610921565b604051808273ffffffffffffffffffffffffffffffffffffffff1673ffffffffffffffffffffffffffffffffffffffff16815260200191505060405180910390f35b6102fe61094a565b604051808215151515815260200191505060405180910390f35b61038f6004803603602081101561032e57600080fd5b810190808035906020019064010000000081111561034b57600080fd5b82018360208201111561035d57600080fd5b8035906020019184600183028401116401000000008311171561037f57600080fd5b90919293919293905050506109a8565b6040518082815260200191505060405180910390f35b6103ad610cae565b6040518082815260200191505060405180910390f35b610405600480360360208110156103d957600080fd5b81019080803573ffffffffffffffffffffffffffffffffffffffff169060200190929190505050610cb4565b005b6002602052806000526040600020600091509050806000015490806001018054600181600116156101000203166002900480601f0160208091040260200160405190810160405280929190818152602001828054600181600116156101000203166002900480156104b95780601f1061048e576101008083540402835291602001916104b9565b820191906000526020600020905b81548152906001019060200180831161049c57829003601f168201915b5050505050905082565b6003818051602081018201805184825260208301602085012081835280955050505050506000915090505481565b60006104fb61094a565b61056d576040517f08c379a00000000000000000000000000000000000000000000000000000000081526004018080602001828103825260208152602001807f4f776e61626c653a2063616c6c6572206973206e6f7420746865206f776e657281525060200191505060405180910390fd5b82828080601f016020809104026020016040519081016040528093929190818152602001838380828437600081840152601f19601f8201169050808301925050505050505060006003826040518082805190602001908083835b602083106105ea57805182526020820191506020810190506020830392506105c7565b6001836020036101000a0380198251168184511680821785525050505050509050019150509081526020016040518091039020541415610692576040517f08c379a000000000000000000000000000000000000000000000000000000000815260040180806020018281038252600e8152602001807f6e6f742065786973697374696e6700000000000000000000000000000000000081525060200191505060405180910390fd5b600060038585604051808383808284378083019250505092505050908152602001604051809103902054905060405180604001604052804281526020016040518060400160405280600781526020017f64656c657465640000000000000000000000000000000000000000000000000081525081525060026000838152602001908152602001600020600082015181600001556020820151816001019080519060200190610741929190610f0e565b50905050600385856040518083838082843780830192505050925050509081526020016040518091039020600090557f8adf9c819c79d6e32cae20d346aa7b10ef93fcda6d420321851b7f7249a45460600154868660405180848152602001806020018281038252848482818152602001925080828437600081840152601f19601f82011690508083019250505094505050505060405180910390a1809250505092915050565b6107f061094a565b610862576040517f08c379a00000000000000000000000000000000000000000000000000000000081526004018080602001828103825260208152602001807f4f776e61626c653a2063616c6c6572206973206e6f7420746865206f776e657281525060200191505060405180910390fd5b600073ffffffffffffffffffffffffffffffffffffffff166000809054906101000a900473ffffffffffffffffffffffffffffffffffffffff1673ffffffffffffffffffffffffffffffffffffffff167f8be0079c531659141344cd1fd0a4f28419497f9722a3daafe3b4186f6b6457e060405160405180910390a360008060006101000a81548173ffffffffffffffffffffffffffffffffffffffff021916908373ffffffffffffffffffffffffffffffffffffffff160217905550565b60008060009054906101000a900473ffffffffffffffffffffffffffffffffffffffff16905090565b60008060009054906101000a900473ffffffffffffffffffffffffffffffffffffffff1673ffffffffffffffffffffffffffffffffffffffff1661098c610d3a565b73ffffffffffffffffffffffffffffffffffffffff1614905090565b60006109b261094a565b610a24576040517f08c379a00000000000000000000000000000000000000000000000000000000081526004018080602001828103825260208152602001807f4f776e61626c653a2063616c6c6572206973206e6f7420746865206f776e657281525060200191505060405180910390fd5b82828080601f016020809104026020016040519081016040528093929190818152602001838380828437600081840152601f19601f8201169050808301925050505050505060006003826040518082805190602001908083835b60208310610aa15780518252602082019150602081019050602083039250610a7e565b6001836020036101000a03801982511681845116808217855250505050505090500191505090815260200160405180910390205414610b48576040517f08c379a00000000000000000000000000000000000000000000000000000000081526004018080602001828103825260098152602001807f6475706c6963617465000000000000000000000000000000000000000000000081525060200191505060405180910390fd5b610b50610f8e565b604051806040016040528042815260200186868080601f016020809104026020016040519081016040528093929190818152602001838380828437600081840152601f19601f820116905080830192505050505050508152509050610bc060018054610d4290919063ffffffff16565b60018190555080600260006001548152602001908152602001600020600082015181600001556020820151816001019080519060200190610c02929190610f0e565b50905050600154600386866040518083838082843780830192505050925050509081526020016040518091039020819055507f8da59dbb54d121aaa28411350b55194b6e8468a59d605ae71659e103d8f0df13600154868660405180848152602001806020018281038252848482818152602001925080828437600081840152601f19601f82011690508083019250505094505050505060405180910390a16001549250505092915050565b60015481565b610cbc61094a565b610d2e576040517f08c379a00000000000000000000000000000000000000000000000000000000081526004018080602001828103825260208152602001807f4f776e61626c653a2063616c6c6572206973206e6f7420746865206f776e657281525060200191505060405180910390fd5b610d3781610dca565b50565b600033905090565b600080828401905083811015610dc0576040517f08c379a000000000000000000000000000000000000000000000000000000000815260040180806020018281038252601b8152602001807f536166654d6174683a206164646974696f6e206f766572666c6f77000000000081525060200191505060405180910390fd5b8091505092915050565b600073ffffffffffffffffffffffffffffffffffffffff168173ffffffffffffffffffffffffffffffffffffffff161415610e50576040517f08c379a0000000000000000000000000000000000000000000000000000000008152600401808060200182810382526026815260200180610fce6026913960400191505060405180910390fd5b8073ffffffffffffffffffffffffffffffffffffffff166000809054906101000a900473ffffffffffffffffffffffffffffffffffffffff1673ffffffffffffffffffffffffffffffffffffffff167f8be0079c531659141344cd1fd0a4f28419497f9722a3daafe3b4186f6b6457e060405160405180910390a3806000806101000a81548173ffffffffffffffffffffffffffffffffffffffff021916908373ffffffffffffffffffffffffffffffffffffffff16021790555050565b828054600181600116156101000203166002900490600052602060002090601f016020900481019282601f10610f4f57805160ff1916838001178555610f7d565b82800160010185558215610f7d579182015b82811115610f7c578251825591602001919060010190610f61565b5b509050610f8a9190610fa8565b5090565b604051806040016040528060008152602001606081525090565b610fca91905b80821115610fc6576000816000905550600101610fae565b5090565b9056fe4f776e61626c653a206e6577206f776e657220697320746865207a65726f2061646472657373a265627a7a7231582085b4682f84d443374cae521236050aee408baf3926e6b3589e2b83fabcca1e6664736f6c63430005100032",
  "source": "// SPDX-License-Identifier: MIT\npragma solidity >=0.4.22 <0.9.0;\n\nimport \"@openzeppelin/contracts/ownership/Ownable.sol\";\nimport \"@openzeppelin/contracts/math/SafeMath.sol\";\n\n/// @title postchain\n/// @notice You can use this contract for your JSONs notarization\n/// @dev All function calls are currently implemented without side effects\ncontract postchain is Ownable {\n    using SafeMath for uint256;\n\n    struct Step {\n        uint256 createdAt;\n        string hashOfJson;\n    }\n\n    // COUNTERS\n    uint256 public stepsCounter = 0;\n\n    // STRUCT MAPPINGS\n    mapping(uint256 => Step) public stepIdToStepInfo;\n    mapping(string => uint256) public hashToId;\n    event StepProofCreated(uint256 _id, string _hash);\n    event StepProofRemoved(uint256 _id, string _hash);\n\n    //Modifiers\n    modifier noDuplicate(string memory _hashOfJson) {\n        require(hashToId[_hashOfJson] == 0, \"duplicate\");\n        _;\n    }\n\n    modifier exists(string memory _hashOfJson) {\n        require(hashToId[_hashOfJson] != 0, \"not exisisting\");\n        _;\n    }\n\n    /// @notice Notarizes a supply chain Step Proof\n    /// @param _hashOfJson The hash proof of the JSON file\n    /// @return The numeric ID of the Step proof\n    function createStepProof(string calldata _hashOfJson)\n        external\n        onlyOwner\n        noDuplicate(_hashOfJson)\n        returns (uint256 stepID)\n    {\n        Step memory newStep = Step(now, _hashOfJson);\n        stepsCounter = stepsCounter.add(1);\n        stepIdToStepInfo[stepsCounter] = newStep;\n        hashToId[_hashOfJson] = stepsCounter;\n        emit StepProofCreated(stepsCounter, _hashOfJson);\n        return stepsCounter;\n    }\n\n    function removeStepProof(string calldata _hashOfJson)\n        external\n        onlyOwner\n        exists(_hashOfJson)\n        returns (uint256 stepID)\n    {\n        uint256 hashId = hashToId[_hashOfJson];\n        stepIdToStepInfo[hashId] = Step(now, \"deleted\");\n        delete hashToId[_hashOfJson];\n        emit StepProofRemoved(stepsCounter, _hashOfJson);\n        return hashId;\n    }\n}",
  "sourcePath": "/home/trevi/Postchain/Postchain/blockchain-contracts/contracts/postchain.sol",
  "compiler": {
    "name": "solc",
    "version": "0.5.16+commit.9c3226ce.Emscripten.clang"
  },
  "schemaVersion": "3.4.6",
  "updatedAt": "2022-04-05T19:27:27.979Z",
  "networkType": "ethereum",
  "devdoc": {
    "details": "All function calls are currently implemented without side effects",
    "methods": {
      "createStepProof(string)": {
        "params": {
          "_hashOfJson": "The hash proof of the JSON file"
        },
        "return": "The numeric ID of the Step proof"
      },
      "isOwner()": {
        "details": "Returns true if the caller is the current owner."
      },
      "owner()": {
        "details": "Returns the address of the current owner."
      },
      "renounceOwnership()": {
        "details": "Leaves the contract without owner. It will not be possible to call `onlyOwner` functions anymore. Can only be called by the current owner.     * NOTE: Renouncing ownership will leave the contract without an owner, thereby removing any functionality that is only available to the owner."
      },
      "transferOwnership(address)": {
        "details": "Transfers ownership of the contract to a new account (`newOwner`). Can only be called by the current owner."
      }
    },
    "title": "postchain"
  },
  "userdoc": {
    "methods": {
      "createStepProof(string)": {
        "notice": "Notarizes a supply chain Step Proof"
      }
    },
    "notice": "You can use this contract for your JSONs notarization"
  }
}